:1000000020300020051200007D520000F111000098
:10001000F1110000F1110000F1110000F1110000D8
:10002000000000000000000000000000DD120000E1
:10003000F1110000000000007D140000F11100002B
:10004000FD140000FD140000FD140000FD1400006C
:10005000FD140000FD140000FD140000FD1400005C
:10006000FD140000FD140000FD140000FD1400004C
:10007000FD140000FD140000FD140000FD1400003C
:10008000FD140000FD140000FD140000FD1400002C
:10009000FD140000FD140000FD140000FD1400001C
:1000A000FD140000FD140000FD140000FD1400000C
:1000B000FD140000FD140000FD140000FD140000FC
:1000C000FD140000FD140000FD140000FD140000EC
:1000D000FD140000FD140000FD140000FD140000DC
:1000E000FD140000FD140000FD140000FD140000CC
:1000F000FD140000FD140000FD140000FD140000BC
:10010000FD140000FD140000FD140000FD140000AB
:10011000FD140000FD140000FD140000FD1400009B
:10012000FD140000FD140000FD140000FD1400008B
:10013000FD140000FD140000FD140000FD1400007B
:10014000FD140000FD140000FD140000FD1400006B
:04015000FD1400009A
:1001540053B94AB9002908BF00281CBF4FF0FF312A
:100164004FF0FF3000F00CB8ADF1080C6DE904CE8F
:1001740000F008F8DDF804E0DDE9022304B070477C
:10018400704700BF2DE9F0478C468E46089E154601
:1001940004461946002B40F0D080724547D9B2FA84
:1001A40082F74FB1C7F120030EFA07FCBD40BC40F3
:1001B40020FA03F343EA0C0C4FEA154EA8B2230CC1
:1001C400BCFBFEF80EFB18CC08FB00F943EA0C4319
:1001D400994528D9EB1808F1FF3204D2994502D980
:1001E400A8F102022B44A3EB0903A4B2B3FBFEFC67
:1001F4000EFB1C330CFB00F044EA0344A04214D968
:100204002C190CF1FF3304D2A04202D9ACF1020341
:100214002C44241A43EA02401EB1FC4000233460FB
:100224007360BDE8F0874246DDE76346F1E7002AE4
:1002340079D0B2FA82F3002B3FD01946C1F12003E2
:1002440002FA01F500FA01F42EFA03F20EFA01FEA5
:1002540020FA03F3AFB243EA0E034FEA154EB2FBA2
:10026400FEFC0EFB1C201A0C0CFB07F842EA0042B1
:1002740090455AD9AA180CF1FF3004D2904502D9FE
:10028400ACF102002A44A2EB08029BB2B2FBFEFCD2
:100294000EFB1C220CFB07F743EA02439F4246D99C
:1002A400EB180CF1FF3204D29F4202D9ACF10202E6
:1002B4002B44DB1B42EA004202E0AEEB02030122C4
:1002C4004FEA154EAFB2200CB3FBFEFC0EFB1C3301
:1002D4000CFB07F840EA034398452AD9EB180CF1C4
:1002E400FF3004D2984502D9ACF102002B44A3EBB1
:1002F4000803A4B2B3FBFEFC0EFB1C330CFB07F794
:1003040044EA0344A74216D92C190CF1FF3304D252
:10031400A74202D9ACF102032C44E41B43EA004097
:100324000F46114678E71F2188E76046ABE762462F
:10033400BFE76046DBE76346EFE7734506D916B9C6
:10034400002108466DE7C6E9000EF9E7B3FA83F722
:1003540087B9734501D3824207D8841A6EEB03032D
:1003640001209C461EB900215BE73846FAE7C6E93E
:10037400004CF8E7C7F1200CBB4000FA07F422FA5E
:100384000CF520FA0CF1BA401D432EFA0CF30EFAC8
:1003940007FE4FEA154941EA0E011FFA85FEB3FB39
:1003A400F9F809FB18300B0C08FB0EFA43EA00437A
:1003B4009A4540D9EB1808F1FF3004D29A4502D986
:1003C400A8F102002B44A3EB0A0389B2B3FBF9F8AA
:1003D40009FB183308FB0EFE41EA03418E452CD974
:1003E400691808F1FF3304D28E4502D9A8F102033B
:1003F400294443EA0040A1EB0E01A0FB02984145C9
:10040400CE46434602D306D14C4504D20138B9EB5B
:10041400020E68EB0503002EA5D0B4EB0E0261EBCF
:10042400030101FA0CFC22FA07F3F9404CEA030336
:10043400C6E9003197E74046C5E74346D9E70000DF
:10044400014803F0FBB800BFCC010020F0B5002444
:1004540087B0224F1422214601A88DF8034006F0EC
:100464006AF8BD682B686BB138460DF103019847F3
:10047400064638B99DF803300D2B11D00A2B0FD046
:10048400122C05DD26460A2004F0B3FB3446E9E7C6
:1004940004F11802661C0DEB020404F8143CF2E7A4
:1004A400002CF0D004F118030DEB030400231820F2
:1004B40004F8143C03F02CFF044648B11421084A04
:1004C40001AB043004F0FAF82146064805F0A7FE13
:1004D4001422002101A806F02EF8D4E718670000C2
:1004E400246D0000F00100202DE9F0474E4E88B045
:1004F4004FF0FF324FF0FF334C4803F0EFF803ACFA
:1005040002462546031D00F1140C27461868596855
:10051400083303C763453C46F7D118683860104672
:1005240005F0D0FF2C78002C54D1DFF804A1DFF8BB
:100534000481414FDAE90031D8E90025D21845EBAE
:1005440001053E48D7E90013541845EB030504F0B0
:10055400B1FDD8E900894FF47A7200234046494638
:10056400FFF7F6FD4246CDE900014B46344804F05E
:10057400A1FDDAE900894FF47A7200234046494626
:10058400FFF7E6FD4246CDE900014B462D4804F055
:1005940091FDD7E900894FF47A7200234046494619
:1005A400FFF7D6FD4246CDE900014B46264804F04C
:1005B40081FD002320462946244AFFF7C9FD22462F
:1005C400CDE900012B46224804F074FD214804F0D3
:1005D40071FD8DE74FF0FF334FF0FF321E4802F0FC
:1005E400BBFF04F0DF03522B0FD1012333701B48F0
:1005F40003F000F9FFF724FF4FF0FF324FF0FF3311
:10060400174803F0D1F801358CE7592B03D10223A5
:1006140033701448ECE7472B03D10323337012489B
:10062400E6E7FFF70DFFEEE7D40E0020F00100200F
:10063400900500209805002088050020276D000003
:10064400386D00005A6D00007F6D000040420F00BD
:10065400A36D0000C66D0000CC010020080200203C
:10066400E0010020100200200002002030B51D4DE2
:1006740085B04FF0FF324FF0FF331B4802F06CFFA0
:100684002B78032B24D100242C70FFF7D9FE00F023
:1006940069FFCDE900010121144804F07CFA4FF40C
:1006A4007A7004F0A6FA2146104804F074FA00F0B7
:1006B40059FFCDE90201684602A904F02CFE04F0BA
:1006C40032FE0B4BC3E900010A4803F039F8D0E7C6
:1006D4004FF0FF324FF0FF330349074803F0B0F8FF
:1006E400CEE700BFD40E0020CC010020506B0000E8
:1006F40088050020E0010020000200207FB51C4E88
:100704004FF0FF324FF0FF331A4802F025FF3578DF
:10071400012D24D100243470FFF792FE00F022FF53
:10072400CDE900012946144804F035FA4FF47A70F3
:1007340004F05FFA2146104804F02DFA00F012FF8D
:10074400CDE90201684602A904F0E5FD04F0EBFDE1
:100754000A4BC3E900010A4802F0F2FFD0E74FF068
:10076400FF324FF0FF330349064803F069F8CEE740
:10077400D40E0020CC010020586B00009805002006
:10078400E00100200802002030B585B04FF0FF32B0
:100794004FF0FF331E4802F0DFFE1E4D2B78022B74
:1007A4002CD100242C70FFF74BFE00F0DBFECDE9CA
:1007B40000010121184804F0EEF90121174804F062
:1007C400EAF94FF47A7004F014FA2146124804F05E
:1007D400E2F92146114804F0DEF900F0C3FECDE948
:1007E4000201684602A904F096FD04F09CFD0C4B3E
:1007F400C3E900010B4802F0A3FFC7E74FF0FF3243
:100804004FF0FF330249084803F01AF8C6E700BF67
:10081400CC010020D40E0020586B0000506B000067
:1008240090050020E00100201002002008B50A48CD
:1008340004F0C5F9094804F0C2F9094804F0BFF905
:10084400084805F0D4FB28B9074804F033FC4FF0FE
:10085400FF3008BD0020FCE7586B0000506B00001F
:10086400486B000018670000E06D000008B501F057
:10087400ABF901F0B5F9FFF7D9FF024804F01AFC0F
:10088400002008BDFD6D0000014B1B68184700BF28
:1008940000000020014B1860704700BF00000020DA
:1008A40030B5044685B00D4610220021684605F097
:1008B40042FE02238DF80230044B2A462146684644
:1008C400019303F025FF05B030BD00BF8D08000083
:1008D40080B505460E461746984603F085FA03464A
:1008E40000F01CFE0446DFF81890424649F8003038
:1008F40039463046A84754F8090000F0A7FD00BF68
:10090400080000002DE9F047058B04462807174628
:100914000CD501290CBF45F0100545F020052583B1
:1009240087F31188BFF36F8FBDE8F087022905F0C4
:10093400070540F09480204604F0C9FB052864D8DC
:1009440001A353F820F000BF25090000630A00004A
:100954000F0A0000D1090000EB090000FD090000A6
:1009640001F007035A1F012A1FD8002221F00701B2
:10097400062BD4F8008089B2C4E9002209D1434689
:1009840003E0628B013262831B68002BF9D141F0D2
:1009940002012046218304F09AFB4FF0000900284D
:1009A4006DD041F02001218369E0042B0AD121F0AC
:1009B400070189B22046218304F089FB10B141F07C
:1009C400200121834FF00008C14658E02369D3F881
:1009D4000090238B23F0070343F006034FF0000835
:1009E400238346464BE02369D3F80490238B23F0FA
:1009F400070343F00403F1E72369D3F80890238B3A
:100A040023F0070343F00503E8E74FF00008C1466D
:100A1400E7E7012243F00803238387F31188BFF338
:100A24006F8F002A3BD1B8F1000F4AD1B9F1000F02
:100A340002D020462C49C847EFF31187202383F3C3
:100A44001288BFF36F8F238B23F008039BB2238399
:100A5400D9063FD523F01002228303F00705666907
:100A6400218B002EBFF67CAF00239946D4F800807A
:100A740021F00701C4E9003341F001012183238BF4
:100A840003F0070AAA4502D0A268002AC1D1B8F12E
:100A9400000F02D1B9F1000FDAD00022BAE7A16841
:100AA4000029C0D00D680029BDD0334652462046E7
:100AB4004F68B8471DB12B6829461D46F3E72B46FE
:100AC400FAE74146334652462046D8F8008004F0FF
:100AD4002AFBA8E79A067FF523AF23F0200222839E
:100AE40003F0070527E700BF57510000014B0360DF
:100AF40000207047606B000008B5044804F0DAFA7F
:100B0400034804F0D7FA002008BD00BF5A6E000065
:100B14008F6E0000014803F075BC00BF606B0000DD
:100B240038B5044618B90F4B0F485B68984761689D
:100B3400B1F5683F10D0B1F5680F0DD00B4DA94247
:100B44000AD011F46861206807D00146084805F00E
:100B540093FA00232360656038BD142205F0EBFC92
:100B6400F9E700BFDC000020BC6E00002C5F5CA92C
:100B7400F00C002008B560B34368B3F5683F0ED0AD
:100B8400B3F5680F18D0144A934220D000684FF090
:100B9400FF324FF0FF3302F0DFFC58B115E00122C1
:100BA4000368D3E8EF1F002903D1C3E8E02F00282E
:100BB400F7D10AD1002008BD0368084A1B7803F561
:100BC400807352F82330002BF4D00548F3E705482E
:100BD400F1E76FF4E040EEE72C5F5CA900000350FE
:100BE400E98FFFFFEA8FFFFF08B520B34368B3F531
:100BF400683F09D0B3F5680F13D0114A93421DD052
:100C0400006802F01BFD14E000220368D3E8EF1F24
:100C1400012903D1C3E8E02F0028F7D109D00948FE
:100C240008BD00210368084A1B7803F5807342F865
:100C340023100020F4E76FF4E040F1E70348EFE706
:100C44002C5F5CA9E98FFFFF00000350EA8FFFFFD0
:100C540010B5044618B91D4B1D485B689847636876
:100C6400B3F5683F2FD0B3F5680F2CD0194A9342DF
:100C740019D1236803BB4FF0FF324FF0FF332146F5
:100C8400154802F03BFC08B923681BB90F4B134805
:100C94005B68984714220021206805F04CFC4FF44F
:100CA4006863636008E0B3F5680F0DD83A2B03D08E
:100CB40040F6BA629342DED1206805F028FA6368F0
:100CC40043F03A03636010BD054AF3E7DC000020FB
:100CD400BC6E00002C5F5CA9F00C0020E26E0000EA
:100CE4003A00003A08B5064940231422054805F0A5
:100CF400B6F9BDE808400449044803F0F5BB00BF59
:100D0400F0070020F00C0020686B00007C6B0000F2
:100D140008B50348034A0021121A04F0A5FA08BDD5
:100D240018020020E00E0020074808B5074A0849C9
:100D3400121A04F09BFABDE808400648064A07491F
:100D4400121A04F093BA00BF000000201802002019
:100D5400C07300000000002000000020C0730000E9
:100D640038B505460C4699B1D1E901230F48096805
:100D740004F0A0F9D4E90423E1680D4804F09AF9D9
:100D8400E1690C4804F096F9A1690B4804F092F962
:100D9400012D05D1EFF305810848103904F08AF9D3
:100DA40021462846BDE8384002F060BA0F6F0000C3
:100DB4003F6F00006F6F00007F6F0000AE6F000098
:100DC40030BFFFF7FDBF00BF2DE9F04105460B4ED4
:100DD400DFF82C80324606EB0807CC1B2046094975
:100DE40005F09CFBA01942460021083C05F0A3FB3A
:100DF400C5F8A44007F10800BDE8F0810000000038
:100E040004000000386B000010B5204C204804F0AA
:100E140051F9A36A990137D51E4804F04BF91E20F5
:100E2400A36ADA0103D51C4804F044F91F20174CC7
:100E3400A36ADB0203D5194804F03CF90220A36A33
:100E44001C0303D5164804F035F921200F4CA36A7E
:100E5400590303D5134804F02DF92220A36A9A03F9
:100E640003D5114804F026F92320084CA36ADB03B8
:100E740003D50E4804F01EF92420A36A6FEA034345
:100E84006FEA1343A36210BD1D20C9E700ED00E023
:100E9400C26F0000DB6F0000EF6F00000A700000FB
:100EA40035700000547000007A70000095700000E6
:100EB40070B5244C064624480D4604F0FBF8A36A9A
:100EC400D90435D5214804F0F5F81720A36A1A058A
:100ED40003D51F4804F0EEF818201A4CA36A9B05AA
:100EE4000FD51C4804F0E6F8A16BA36A180407D5D3
:100EF400194804F0DFF81EB1A36A23F40043A36287
:100F04001920104CA36A590503D5144804F0D2F8EB
:100F14001A20A36ADA050DD5114804F0CBF81B207A
:100F2400084A936A43F47F43936200232B7070BD95
:100F34001620CBE7A36A9B04F2D50A4804F0BAF85A
:100F44001C20EDE700ED00E0C1700000D870000047
:100F5400EA700000FE700000187100002E7100009D
:100F64004A7100006371000070B5264C064626489D
:100F74000D4604F09FF8A36AD80640D5234804F030
:100F840099F81120A36A190703D5214804F092F8AF
:100F940012201C4CA36A9A070FD51E4804F08AF845
:100FA400616BA36A1B0607D51B4804F083F81EB1C6
:100FB400A36A23F08003A3621320124CA36ADE0702
:100FC40003D5164804F076F81420A36A9C0603D5CA
:100FD400134804F06FF815200A4B9A6AD10658BFDB
:100FE4009A6A9A6A920642BF5A6A22F400525A6274
:100FF4009A6A42F0FF029A6200232B7070BD10209F
:10100400C0E700BF00ED00E093710000AA7100008A
:10101400EA700000DE710000F77100000E7200003B
:10102400637100002DE9F0415D4B04465F680025C3
:101034008AB0C7F3080685F31188BFF36F8F02F0F7
:101044007F43B3F17F4F06D102F00C03082B13D179
:10105400544804F02FF800252C464FF00008F31EE6
:101064008DF80780092B00F28B80DFE803F00A7FFC
:10107400837B89898989898710074CBF0C460125A0
:10108400EBE74948464E04F015F88DF80780F36AFB
:101094009A0704D5454804F00DF800232AE0F36AC2
:1010A400002B01DA4248F6E7F36A5B00F5D54148C4
:1010B40004F000F87369A26943F480737361BFF3A9
:1010C4004F8FBFF36F8F32F8023C726922F4807243
:1010D4007261BFF34F8FBFF36F8F03F47F42B2F59A
:1010E4005F4F27D1DBB2022B24D12168324803F0B1
:1010F400E1FF23689DF80720CAB902AE04F1200776
:10110400324620686168083403C2BC421646F7D1EF
:10111400099A002D40D0C2F3080121B96FEA522286
:101124006FEA42220992184602A9FFF719FE0AB093
:10113400BDE8F0811A4B9A6AD2B22AB101200DF1AE
:101144000701FFF711FF0FE09A6A12F47F4F05D0F1
:1011540001200DF10701FFF7ABFE05E09B6AB3F533
:10116400803F9AD3FFF750FE0346C3E700200DF1FA
:101174000701E6E700200DF10701ECE70F488AE7D5
:101184000F4B17F4F87F0F490F4808BF1946A6F113
:10119400100203F08FFF80E76FF30802C2E700BF7D
:1011A40000ED00E05C72000088720000A072000094
:1011B400C2720000D1720000F17200000E730000D0
:1011C4002E7200004372000033730000064B5A690C
:1011D40042F010025A615A6942F480625A615A69B3
:1011E40022F008025A61704700ED00E0EFF3088036
:1011F400EFF3098101B57246FFF714FF01BD00BF8B
:10120400002080F31488BFF36F8F002080F30A88D6
:1012140080F30B88104880F3088800200F49087079
:1012240001F0A4FB00200E490860BFF34F8F00F0CB
:101234002DF8202080F311880A484FF400614018EB
:1012440080F30988EFF314800221084380F31488A3
:10125400BFF36F8F00F092F820300020DB0E0020E7
:1012640094ED00E0E0220020002318460649D1F85E
:101274009020C2F30722934200DB7047C1F89830F4
:10128400C1F8A0000133F6E700ED00E010B572B636
:10129400002484F31388FFF7E7FF23464FF0FF3061
:1012A4000C4A03F120010133102B42F82100F8D13C
:1012B40000234FF0FF30074A03F160010133102B84
:1012C40042F82100F8D162B6BFF34F8FBFF36F8F9E
:1012D40010BD00BF00E100E01EF0040F0CBFEFF3EF
:1012E4000880EFF30980816911F8021C0229FFD0FC
:1012F40001B5724603F0BCFF01BD00BF40B2002837
:1013040007DB01234109034A00F01F00834042F830
:101314002130704700E100E0054B420953F82220D8
:10132400012300F01F0003FA00F01040704700BFD3
:1013340000E100E040B2002801F10101ACBF00F17E
:101344006040064B4FEA4111C9B2ABBF00F56140A2
:1013540000F00F0080F800131954704714ED00E0FA
:10136400044B054A23F07F039360BFF34F8FBFF311
:101374006F8F70470000000000ED00E008B5FFF734
:10138400EFFF074AD2F8883023F47003C2F888309C
:10139400FFF7BEFCFFF7C8FC00F0A2F802F032F839
:1013A40000ED00E042F8203C009B0B4942F81C3C55
:1013B400019B21F0010142F8183C029B42F8081CF1
:1013C40042F8143C4FF0807342F8043C0023203A66
:1013D4000265C0F8A8307047D508000000B50E4B70
:1013E40015469860D0F8A4200C4B0E461A60D0F82D
:1013F400943083F30B882C4686F309880020044B31
:1014040098472046002100220023024C2047000078
:10141400A3520000D5080000840E00200C0D00200B
:101424001022014B1A61704700ED00E0054B5A6928
:101434009B689A421FBF044A536843F08053536029
:10144400704700BF840E002000ED00E0084B9B684D
:1014540083420BD1EFF3058343B1064B5A6842F044
:1014640080525A605A6A22F400425A6202F0C2BCA4
:10147400840E002000ED00E016498A684FF0300029
:101484001044EFF3098C80E8F01F202080F31288C9
:10149400BFF36F8F104F4FF000664A698A603E6059
:1014A400D2F8A4000D4C2060D2F8A8000023C2F8A2
:1014B400A83080F3118802F1300090E8F01F8CF31B
:1014C400098802F1000004B503F0E1FEBDE8044020
:1014D40070470000840E002004ED00E00C0D002095
:1014E400002320210348C2180133452B82F800133E
:1014F400F9D1704700E100E008B5EFF30583064A2F
:10150400103B02EBC30152F8330049688847BDE839
:101514000840FFF78BBF00BF506700000148006818
:10152400704700000C0D0020074AD2F8FC3043F04D
:101534008073C2F8FC300022044B5A601A6842F0EF
:1015440001021A60704700BF00ED00E0001000E0E7
:101554000022034B5A601A6842F001021A60704775
:10156400001000E0014B002158687047001000E0B3
:1015740008B501F0EBF9044900230868034A002187
:10158400FEF7E6FD08BD00BFC400002040420F0086
:101594001FB50121094B0A4A0A4800F0F7F8002355
:1015A400064A0393084B0121019301A8D31A02931D
:1015B40000F0F6F805B05DF804FB00BF000007205A
:1015C400000000208C6B0000180200200A7A0B68CF
:1015D40010B562F304031C46CB68520923F01F03C1
:1015E40043EA4203044A43F00103C2F89800C2F8F4
:1015F4009C40C2F8A03010BD00ED00E010B5074BD0
:10160400D3F89030C3F30723013B984202D8FFF785
:10161400DDFF10BD6FF01500FBE700BF00ED00E03B
:101624002DE9F04F0F46144606464FF000084B4D87
:1016340085B0B84580F28E80D6F80490B9F1000FD9
:1016440035D0B9F11F0F40F2838019F01F0F7FD1FD
:10165400D6F800A01AF01F0F7AD1504603F073FE9B
:10166400834609EB0A00013803F06DFE83456FD110
:101674001BF1160F6CD05C456ADDC5F898B0D5F83F
:101684009C10C5F898B0D5F8A03021F01F0143F0A4
:101694001F0AD6E900321A44994202F1FF391BD1DC
:1016A400CA4508D131465FFA8BF003F055FE08F1C4
:1016B40001080C36BDE73146C5F898B0D5F89C3022
:1016C400E0B263F30402C5F89C2003F045FE10F178
:1016D400160F3DD0441CEAE7C5F898B0D5F8A02011
:1016E400013B23F01F0302F01F021343CA45314696
:1016F400E0B2C5F8A030E8D003F02EFE10F1160FCA
:1017040026D0C5F898B0D5F89C209DF808300AF189
:10171400FF3A62F304038DF80830D5F8A0309DF841
:1017240008205B0863F347128DF80820D6E90032DD
:101734001344009323F01F035344A3EB0903013024
:1017440023F01F036946C0B20393FFF757FFBEE7B8
:101754006FF01504204605B0BDE8F08F00ED00E001
:101764000522044BC3F89420BFF34F8FBFF36F8F50
:10177400704700BF00ED00E0BFF35F8F0022024B13
:10178400C3F89420704700BF00ED00E010B5034C8F
:101794002278FFF745FF207010BD00BFD50E002052
:1017A4002DE9F74F294D8A4606464FF00008AB460F
:1017B400274FD0451BDAD6F80490B9F1000F3FD07B
:1017C40031680846019103F0BEFD0199044609EB16
:1017D4000100013803F0B7FD84424FF014021D4BA1
:1017E40008D002FB08F36FF015024BF8032003B096
:1017F400BDE8F08F14F1160F2C60F8D01978A142CF
:10180400F5DD02FB08B0C7F89840C7F89840D7F850
:101814009C4000F10801007B64F304000871D7F8D0
:10182400A0000C79400860F347140C71D7F89C10A1
:1018340021F01F016960D7F8A01021F01F01296170
:1018440008F1010814350C36B3E700BF100D002071
:1018540000ED00E0D50E0020F0B55349534DD1F80A
:1018640090302C68C3F307239C4287B000F2998020
:101874000020FFF781FF4E4BC1F8C030844216D1DF
:101884004C4D01A82C70FFF731F9002607464A4C4D
:10189400B74213D100202B784349D1F89020C2F3EA
:1018A4000722934277DBFFF75BFF002046E069687D
:1018B40001EB0011FFF78AFE0130DFE701993001E7
:1018C40001EB0613DA682240B2F1807F52D00AD8C5
:1018D400B2F5001F34D0B2F5800F3ED0B2F5801FB0
:1018E40012D00136D4E7B2F1006F43D0B2F1805F79
:1018F400F7D15A689B680958013B22F01F00034442
:1019040023F01F03012032E05A689B680958013B09
:1019140022F01F0003440120844623F01F0340EA01
:101924004C10CDE902218DF8100002A92878059306
:10193400FFF764FE00282ADA6FF0150007B0F0BD47
:101944005A689B680958013B22F01F0003444FF07A
:10195400020C012023F01F03E1E75A689B68095831
:10196400013B22F01F000344062023F01F034FF025
:10197400000CD4E75A689B680958013B22F01F0009
:1019840003444FF0030C012023F01F03C7E72B7817
:1019940001332B70A5E7C1F89830C1F8A0000133DA
:1019A4007BE74FF0FF30C9E700ED00E0986B0000E3
:1019B400AAFF4400D50E00200000F0FF08B5024B3A
:1019C4001B689847002008BD240D0020034B044ADF
:1019D4001860937843F0020393707047240D00203D
:1019E4002400002008B50649064821F00701C1F18A
:1019F400005202F5E02203F009FB002008BD00BFFD
:101A040063340020280D0020052370B5144D154EB5
:101A14002C780134B4FBF3F303EB8303E41A03F0EF
:101A24001CFF114A137823B156F82430C01A072832
:101A340014D94FF05023D3F8141141B10021C3F845
:101A44001411D3F814312C700CB9012313702C78B1
:101A540003F003FF46F82400012070BD0020FCE7DA
:101A6400D70E0020340D0020D60E0020054B03EBCA
:101A74008000D0F8003223F0E04343F04053C0F834
:101A84000032704700258450012208B50B4B0C49E5
:101A9400C3F8002502230020C1F8D036FFF7E6FF83
:101AA4001046FFF7E3FFC1F80427C1F80429C1F881
:101AB400002BBDE8084000F065B800BF00100050DE
:101AC4000040005007B500220D4B0E49C3F8A82171
:101AD400C3F8AC204FF48062C3F8B8254FF4006219
:101AE4000948C3F83C250DF1070203F00AFF00285A
:101AF40003DB9DF8070001F04FF803B05DF804FB29
:101B040000A002502CA0025028A1025048B1054B5D
:101B1400054A1B68B3FBF2F35843044B43F001033B
:101B240018477047C400002040420F00406B00007B
:101B340070B50025104E1149114C000716F8013BF1
:101B440003F01F025B090FD0012B0FD1234603EBD7
:101B54008203D3F80022013522F0E0420243042D2F
:101B6400C3F80022EAD170BD0B46F0E700238032AF
:101B740053F82230FFDE00BFA1730000002584501B
:101B8400002884500149024803F0F0BAC06B0000F9
:101B9400480D002008B54FF0FF33044A13603F237B
:101BA4001046536000F0E4FF002008BD640D0020DF
:101BB400044BD3F80425D20744BF0022C3F80425FC
:101BC400704700BF00D0005010B5044C23781BB9F7
:101BD400FFF7AAFC0123237010BD00BFD80E00201C
:101BE400054BD3E8EF2F511CC3E8E01F0028F8D1C0
:101BF4000AB9FFF7ADBC70476C0D0020084B70B5F7
:101C0400C31A0D4607499B1004465943402206480F
:101C140003F00DFC2B4601462046BDE870401847F2
:101C2400840D0020B76DDBB6C4660000402373B595
:101C34000B4C0093041B0B460D460A49A410614348
:101C44000646094A094803F01DFC014628B13046FE
:101C54002B4602B0BDE87040184702B070BD00BF0B
:101C6400840D0020B76DDBB6F7540000C466000095
:101C74002DE9F8430022012107460520FFF75AFB0E
:101C8400114800F0A9FF0446C0B900F0D9FF254669
:101C94004FF01C094FF00C083E690C4909FB056024
:101CA40003F064FA031E0CDB012308FB05661D44E4
:101CB400042DB367F0D12046BDE8F8836FF0040427
:101CC400F9E71C46F7E700BFFD1D0000CC6B0000E0
:101CD4001FB5002201236C46CDE902236B46074A57
:101CE400CDE9004403F0FEFB28B94FF48042002301
:101CF400684601F059FD04B010BD00BF2155000035
:101D040010B5EFF31184202383F31288BFF36F8F90
:101D1400074A136823F00201DB07116002D4012093
:101D240003F01DFE84F31188BFF36F8F10BD00BF55
:101D3400240E00200C22104B014602FB003300202D
:101D440030B4D3E91C521867EFF31180202484F3D4
:101D54001288BFF36F8F9C6F04F0C00444F0020438
:101D64009C6780F31188BFF36F8F1DB12B4630BC85
:101D74000248184730BC7047840D0020C466000038
:101D840010B4EFF31180202282F31288BFF36F8F17
:101D940017490B6843F0020413F001030C601AD0D6
:101DA4004FF05023D3F80C14D3F80C3413F0010380
:101DB40011D0EFF3118182F31288BFF36F8F0D4AB4
:101DC400936F03F0C00343F00203936781F3118818
:101DD400BFF36F8F012380F31188BFF36F8F1BB1A3
:101DE400002010BCFFF7A6BF012010BC03F0A8BD63
:101DF400240E0020840D0020092813D8DFE800F009
:101E040005101212121212120E0C074B986F10F0DA
:101E1400070007D1FFF78EBF0220FBE70320F9E795
:101E24000120F7E7704700BF840D00202DE9F04141
:101E3400012280463749D1E8EF3FC1E8E02F00286E
:101E4400F9D133B9344935484B60CB608A6003F02B
:101E5400A0F908F1FF33012B4FD8B8F1010F07D1D6
:101E64004FF05023D3F81C3403F00303022B44D067
:101E740004F0EDF9054658B1EFF31186202383F3FE
:101E84001288BFF36F8F01254FF05024244F22E0B6
:101E9400244B1B78002BEFD04FF050230222064630
:101EA400C3F80823F0E755B3304603F018FAD4F822
:101EB4001835DBB2012B0ED1D4F804215AB100221B
:101EC400C4F80421D4F804210222C4F818252022DD
:101ED400C7F88021A360D4F81824D4F81834D203A6
:101EE400E1D503F00303022B02D0B8F1010FDAD1DC
:101EF40055B186F31188BFF36F8FBDE8F0810021DF
:101F0400212004F03EFAD2E74FF050230222C3F816
:101F14000423F2E7800D0020700D0020A00D0020A6
:101F240000E100E0DB0E002008B5074804F05FF88C
:101F340038B10648FFF74AFD0448FEF7ABFC002021
:101F440008BD6FF01200FBE718670000551F000082
:101F54000A2838B50446074D04D1AB680D2128463C
:101F64005B689847AB6803485B68E1B298472046D2
:101F740038BD00BF186700002DE9F04340F2063673
:101F84004768D00648BF4FF0030C3B7C02EA0606C4
:101F940058BFC2F3401C87B001F01F05B6F5837F1C
:101FA400144645EA43158DF803C043D00DD8062ED8
:101FB40016D005D8A6B1022E3ED06FF0150036E03B
:101FC400B6F5807FF9D101260AE040F2022296425A
:101FD40034D0B6F5407F33D0B6F5007FEDD102267C
:101FE40022032FD501237A688B409360B86890BB95
:101FF40005F01F036D092CD0012D75D13C4A02EB6D
:102004008302C4F30043D2F8001283F00103C4F343
:10201400404444EA430421F4706144EA8C0421F00E
:102024000F0144EA06230B43C2F80032002007B034
:10203400BDE8F0830726D3E70426D1E70526CFE7DA
:102044000326CDE7630341BF01237A688B40D36045
:10205400CCE7284AD3E729460DF1020203F03EFFFC
:1020640014F4403F80460CD12946B86803F04FFF72
:10207400B8F1000FDAD19DF80210B86800F0F8FF4B
:10208400D4E74FF0000901ABCDE90199CDE904395A
:10209400CDF80C902946B86803AA03F0F4FD48452E
:1020A400C4DB14F4003314D09DF80330C4F30044AB
:1020B40084F001048DF80E308DF80C608DF80D401D
:1020C4004B462946B86803AA03F090FE0028CFDAED
:1020D400ACE7CDE904330DF1030303932946B86853
:1020E40003AA03F0D0FDF1E7803350F82330FFDE7C
:1020F40000288450002584504209034670B502D05C
:10210400012A17D070BD0D4E326951680029F9D0EB
:10211400012503F01F030C689D400029F2D08A6852
:102124002A4002D030464B6898472CB12368214698
:102134001C46F2E7024EE7E72346F8E7FC66000098
:10214400E066000038B54568A86890B103F0D9FE90
:10215400014670B9A86800F059FF044658B9024610
:102164000649A86803F0B7FE224605210D20FFF7B3
:10217400E1F8002038BD6FF00400FBE7FD2000000B
:10218400F0B544681646A068227C01F01F0587B0AC
:1021940045EA421500286CD0B6F5001F04D1294643
:1021A40003F007FF002055E06268607CB6F5800FFD
:1021B40050624FF0000001AA0190506037D1B3F192
:1021C400007F14BF052304238DF804300023CDE9D8
:1021D40004230393E3680DF1030723FA01F111F0DB
:1021E400010139D1B6F1A07F36D105F01F036A0988
:1021F40003F1800326D0012A3ED1214A52F823302C
:10220400DB0729D43A462946A06803F067FE163056
:102214001AD002972946A06803AA03F034FD0028C7
:1022240018DB01222946A06803F073FEBAE7B3F174
:10223400C06F05D0B3F1007F14BF01230223C3E7AD
:102244000323C1E70F4AD9E73946A06800F01AFF13
:102254000028DEDA07B0F0BD3A462946A06803F04C
:102264003DFE0028D6D19DF80310A06800F000FFC1
:10227400D0E76FF08500EDE751F82330FFDE00BFB3
:10228400002884500025845010B50B4C204603F0E0
:10229400AEFE70B12269A1681368204623F40013CE
:1022A40013600B684FF4C0221521984700EAE070D0
:1022B40010BD6FF01200FBE7FC660000036803F03A
:1022C4001F025B09026004D0012B034818BF0020E1
:1022D40070470248704700BF00288450002584508E
:1022E4002DE9F74F154607464FF0010800EB810131
:1022F400B94203D1002003B0BDE8F08F3B68C3F3BB
:10230400C322082AC3F3080400F2AE805848865C4E
:1023140040F2FF12944208BF4FF0FF34B3F1D05F94
:102324004FEA136210D2192A10D8DFE802F0122102
:1023340029382C33380F0F0F0F3E44474A4D505362
:1023440056590F0F5C65686B4E2A2BD06FF08500D1
:10235400D1E7C5F80C45631C4CD001A80194FFF7E4
:10236400ADFF019B4FF0010908FA03F3836058E0C5
:10237400C5F81445631C3DD04FF00009CA4652E02D
:10238400C5F80845E7E74FF00009C5F80845621CA1
:1023940030D03EE0C5F80C454FF00109F7E7C5F829
:1023A4001045E7E7C5F81445D5E7C5F80845002EFC
:1023B400E0D10626DEE7C5F80C45F8E7C5F8644524
:1023C400EAE7C5F86445D5E7C5F86845E4E7C5F824
:1023D4006845CFE7C5F86C45CCE7C5F87045DBE741
:1023E400C5F86045D8E7C5F860457B88601C03F0F4
:1023F40001030AD104377BE7C5F86445F5E7C5F85E
:102404006845F2E7C5F86C45EFE7002BA5D14FF01E
:10241400010901A80194FFF751FF019B08FA03F396
:10242400C3604FF0010AD7F800B001A81BF4004FB5
:102434001CBF4FF001094FF0000A0194FFF73EFF63
:10244400019B0C4C00EB8300D0F80022CBF3412B12
:10245400330243EA8B0343EA0A031440234343EA67
:102464004903C0F80032C5E76FF0150043E700BF29
:10247400A5730000F0F0FCFF2DE9F04104460D4681
:10248400476803F0E4FE88B14FF02008EFF31186AB
:10249400314688F31288BFF36F8F606803F022F926
:1024A40050BB86F31188BFF36F8FEFE71F4B1B7888
:1024B400002BE9D04FF020086426606803F012F97D
:1024C40070B9012003F0E8F9013EF6D10021212082
:1024D40003F057FFF0E786F31188BFF36F8FF5E73A
:1024E400EFF31186314688F31288BFF36F8F60686B
:1024F40003F0F8F80028EED0FB6900201D70636833
:10250400FA691B68C3F844250122C3F84825C3F8B7
:102514002001D3F82041C3F85801D3F858019A6038
:1025240081F31188BFF36F8FBDE8F081DB0E0020CB
:102534000123834070B5DC430C4AD2E8EF1F01EA63
:102544000405C2E8E65F002EF7D14FF480328240E2
:102554000748C0F80823BFF35F8FBFF36F8F03EA08
:102564000100003818BF012070BD00BF500E0020CC
:102574000050015070B4124922F07F46D1E9003472
:10258400D01AC31844F10004C1E90034A6F50013BD
:10259400B3F5400F09D20B4B1B681A0A1B069C1992
:1025A400094B42F10005C3E90045EFF311812023F3
:1025B40083F31288BFF36F8F70BC01F019BE00BFA4
:1025C400B0050020540E0020B8050020D9B1012325
:1025D4000D4A8340D2E8EFCF4CEA030CC2E8E1CFC6
:1025E4000029F7D14FF48033084A8340C2F80433FA
:1025F400074BD3E8AF3FC340DB0742BF4FF40012A1
:10260400044BC3F800217047500E002000500150C5
:102614004C0E002000E100E00D4B1868010A000692
:10262400BFF35F8F0B4BD3F80435181841F1000149
:10263400B3F5801F0AD2084BD3E90023904271EB13
:10264400030303D210F1807041F10001704700BF11
:10265400540E002000500150B80500202DE9F04F21
:1026640085B016461F4604469DF840A0FFF760FF5C
:102674000190FFF7D1FFB04271EB07035CD23B4BF3
:10268400301A67EB0101984271F1000109D36FF030
:10269400150520460199FFF799FF284605B0BDE8C6
:1026A400F08F334B03EB0413D3E902239F4208BF9B
:1026B40096424ED04FF480382E4908FA04F820464A
:1026C40026F07F4BC1F8488303F0BBF84FF00309B1
:1026D400584604F15005AD00ADB205F1502504F59E
:1026E400A87305F580350293029A20F07F4341F8E0
:1026F4002230C1F84483D1F804351F4AC01A033884
:1027040020F07F40904224D9286868B1D1F804357C
:10271400A3EB0B0020F07F40B0F5000F039318D912
:10272400204603F08EF8039BBAF1000FAFD109EBFA
:10273400030009F10109D7E7BAF1000FA7D101237A
:102744000E4AA340D2E8EF0F1843C2E8E10F002974
:10275400F8D107490E982301C8500F9B01EB0412CE
:102764000025C2E90267536093E700BF01008000BF
:10277400A005002000500150FDFF7F004C0E0020FA
:102784007FB500254FF0FF304FF0FF31194C1A4B45
:102794000226C4F80833C4F84833184BC4F8085563
:1027A400C3E902014FF480334FF40012C4F8043338
:1027B400134B0121C4F804631520C3F880212A4671
:1027C400FEF7B8FD1520FEF799FD01230D4AA3601D
:1027D400236013600C4B0D4A009328460023CDE977
:1027E4000155FFF73BFF3046FFF720FB284604B0B6
:1027F40070BD00BF0050015003000F00A005002071
:1028040000E100E0500E002079250000FFFF7F006A
:102814002DE9F7432D4BD3F8042391070BD5D3F8B7
:10282400042142B10022C3F80421294AD3F8043117
:10283400136801331360254CD4F80433DA033FD50D
:10284400244BD3E8EF2F22F00101C3E8E01F002856
:10285400F7D1D30702D4D4F840318BB30025C4F8A0
:102864004051D4F84031FFF7D7FEEFF31182202313
:1028740083F31288BFF36F8F174BD3E90267B0421B
:10288400B94120D3D3E900984FF0FF304FF0FF3126
:102894001D60C3E902014FF48033C4F84833C4F81F
:1028A4004051D4F8403182F31188BFF36F8FB9F1EE
:1028B400000F05D032463B460020CDF80080C847C3
:1028C40003B0BDE8F083A946EDE700BF0050015016
:1028D400540E00204C0E0020A005002030B5431CEF
:1028E400124C85B005D08442A8BF0446012CB8BF61
:1028F4000124FFF791FE0E4B0C4DD3E90013401A4F
:10290400B0F5000F0FD22218AA4228BF2A46002091
:1029140052180849CDE90100009143F10003FFF783
:102924009DFE05B030BD2A46F1E700BFFFFF7F00E2
:10293400B00500207925000008B5FFF76DFE024BB5
:102944001B68C01A08BD00BFB00500204FF050231B
:10295400D3F85825034B02F00302D340024A136014
:10296400704700BF0020A107C400002008B502F092
:1029740083FF58B1754BD3F8202A3AB90D21C3F817
:10298400201A0121C3F81C19C3F81C290022D30002
:1029940003F57F03D3F80013013107D0D3F80013F4
:1029A4000132D3F80433202A0B60F0D102F064FF23
:1029B400002840F0B38002F05FFF40B1644B654AE9
:1029C400C3F830254FF050230122C3F858254FF4A3
:1029D4007F03D3F83021D3F83431072A06D1023BE0
:1029E400012B9EBF00225C4BC3F84C2502F044FF30
:1029F40050B14FF05023D3F80024D00742BF002237
:102A0400C3F81421C3F818214FF47F03D3F83021FD
:102A1400D3F83431072A09D14FF05023D3F80024D6
:102A2400D10744BF6FF00102C3F8002402F024FF71
:102A340018B16522454BC3F80C274FF47F03D3F834
:102A44003021D3F83431072A16D1434BD3F820343C
:102A5400002B11DA4FF050230322C3F8182501226A
:102A64009A60D3F80421002AFBD00022C3F8042181
:102A74000122DA60C3F818254FF47F03D3F830211C
:102A8400D3F83431072A20D1023B022B1DD97E22F0
:102A94002E4B2F49C3F80C27C3F83C297F232F4A18
:102AA400C2F818310023C1F8043EC1F8083E01F50C
:102AB4004821C1F81031C2F82431C2F82C3102F592
:102AC400FF1202F58052C2F8A032254B9A6AD2074F
:102AD4002CD501211E4AC2F80415D2F8001400298D
:102AE400FBD09A6A22F001029A62194BD3F80024AF
:102AF400002AFBD00022C3F80425D3F80024002ABE
:102B0400FBD0BFF34F8F1749174BCA6802F4E0623A
:102B14001343CB60BFF34F8F00BFFDE729220B4B5C
:102B2400C3F80C270322C3F83C2744E70D49D1F826
:102B34008C2042F44062C1F88C2019680B4AC2F818
:102B44004415DB69C2F84C3508BD00BF0040005095
:102B5400009003504400EFBE0020035000200050BA
:102B64000080FF0000ED00E00400FA050060005062
:102B7400014B1860704700BF580E002010B5054B7C
:102B84001446186802F08AFE0028A4BF20700020B2
:102B940010BD00BF580E00200123024A8340C2F832
:102BA4000435704700700150014B00201B68184722
:102BB4005C0E0020014B1B68184700BF5C0E002010
:102BC400014B09201B6818475C0E0020014B0820AC
:102BD4001B6818475C0E002010B5144C237913BBF6
:102BE40001232371124B0028206018BF184600F0FF
:102BF40037F8D0B923680F48002B08BF184600F0F7
:102C0400B9F890B923680C48002B08BF184600F0A7
:102C1400F9F850B923680948002B08BF1846BDE8E5
:102C2400104000F063B86FF0770010BD5C0E002018
:102C3400AD2B0000C52B0000B92B0000D12B0000E8
:102C440008B5064B1B6843B10520FEF765FB20B9A8
:102C5400BDE808400520FEF751BB08BD5C0E00200E
:102C6400074B0246187938B91A6001221A714FF0DD
:102C74005023C3F8142570476FF07700704700BFE6
:102C8400640E00204FF050230022C3F80021D3F833
:102C94000021012208491A60096811B1C3F804230C
:102CA4007047D3F80021002AFBD00022C3F800218A
:102CB400D3F80031704700BF640E00204FF050235A
:102CC400D3F80423D2070DD5D3F8002152B1002242
:102CD400C3F80021D3F800210122C3F80823024BD2
:102CE4001B681847704700BF640E0020054B02465E
:102CF400187918B91A6001221A7170476FF07700B9
:102D0400704700BF6C0E00204FF050230022C3F820
:102D14002021D3F8202101229A61094A126822B1A4
:102D24004FF48072C3F804237047D3F82021002A9B
:102D3400FBD00022C3F82021D3F82031704700BF14
:102D44006C0E00204FF05023D3F80423D2050ED587
:102D5400D3F820215AB10022C3F82021D3F820212E
:102D64004FF48072C3F80823014B1B68184770475F
:102D74006C0E0020074B0246187938B91A600122FC
:102D84001A714FF05023C3F8802570476FF0770015
:102D9400704700BF740E00204FF050230022C3F888
:102DA4002421D3F8242101221A62094A126822B18B
:102DB4004FF40072C3F804237047D3F82421002A87
:102DC400FBD00022C3F82421D3F82431704700BF7C
:102DD400740E00204FF05023D3F8042392050ED52F
:102DE400D3F824215AB10022C3F82421D3F8242192
:102DF4004FF40072C3F80823014B1B68184770474F
:102E0400740E0020074B0246187938B91A60012263
:102E14001A714FF05023C3F8182570476FF07700EC
:102E2400704700BF7C0E00204FF0502310B5D3F83C
:102E340018141E4C11F4803FD3F818241BD002F050
:102E44000302022A02D0012A12D101224FF0502398
:102E5400C3F818250022C3F80421D3F80421012261
:102E64009A602268A2B9D3F80421002AFBD017E0A3
:102E740002F0E5FDE9E7D3F81424D207E5D5D3F849
:102E84001C2402F00302013A012AF1D822681AB183
:102E94000222C3F8042310BDD3F80421002AFBD076
:102EA4000022C3F80421D3F80431F4E77C0E002097
:102EB400F8B54FF0502301250026D3F80443184FEA
:102EC40004F0820404B9F8BDB4FA84F0C0F11F0020
:102ED400830003F580739BB203F1502305FA00F2DB
:102EE400196892B224EA02040029EBD01E601B6820
:102EF4004FF05023022AC3F808230DD1D3F8181435
:102F0400D3F8181401F00301012905D1C3F81825D9
:102F1400C3F804239960D5E73B68C0B29847D1E76A
:102F24007C0E0020036803F01F025B09026004D0DA
:102F3400012B034818BF002070470248704700BFA8
:102F44000028845000258450034A4309D35C00F0D0
:102F54001F001844C0B27047AE730000024611F05F
:102F6400010010B50BD18B07C1F340000DD5074903
:102F7400086A50600862003818BF012005E0044C5C
:102F8400236A13602362002BEDD010BD0028845007
:102F940000258450F7B504460846FFF7D5FF04EB37
:102FA4004006B38A0D46DB072AD5204602F049FEC7
:102FB4002946204602F0B6FD50B1204602F0C8FD75
:102FC4000023276807EB8000C0F81035C0F81035DF
:102FD4002946204602F0E5FD002101A8B1820195B1
:102FE400FFF7A0FF019B00EB8300D0F80022064B03
:102FF400134043F00203C0F80032084603B0F0BDAA
:103004006FF01500FAE700BFF0F0FCFF70B590F820
:103014008C40054690F88D6024BB21466022143014
:1030240003F089FA2146114B286853F836608E4222
:103034000ED10024C0F87C41D0F87C3140F3073035
:10304400FEF75CF90123204685F88C30AB6770BD30
:10305400CBB29B0003F580727C2B04BF8450835851
:103064000131E4E76FF07700F1E700BF706C000016
:1030740090F88D00024B03EB800002F029BC00BFE6
:10308400C800002010B5064B90F88D000C4603EBE9
:10309400800002F003FC0028A4BF2070002010BDB3
:1030A400C80000202DE9F04F804658F804AB90F892
:1030B4008D40DAF804136A4BC9B2074653F834203A
:1030C40050468BB041F0004102F094FD051E39DA00
:1030D4000023CDE90833624BE60003EBC4046368C4
:1030E40008A819460093FFF739FF331D03934FF0E7
:1030F400000B5C4B0DF120090293029A584912F817
:10310400013B0292039A02EBD3028A5C03F00703A9
:1031140022FA03F3DB071BD40BF10103022B4FF05C
:10312400010B09F10409E8D14FF000410022504697
:1031340002F060FD009908A8FFF710FF0028D6D11F
:1031440025F000450124002D73D10BB0BDE8F08FAC
:10315400454B5B440493D9F80060002EDCD096FA0A
:10316400A6F6B6FA86F6049B1C7846EA4414204672
:10317400FFF7EAFE07EB4000818AF208C1F38203FD
:1031840005930193012319F8020006F0070603FAD8
:1031940006F620EA060009F8020007A80794FFF7DC
:1031A400C1FE079A11F0100F02F1800250F822605C
:1031B400059BC6F3014623D04046019A214602F0FE
:1031C400D1FC07A80794FFF7ADFE079BF6B2803346
:1031D40050F82330C3F301439E4207D10021204617
:1031E40002F091FC3146204602F08DFC07A80794BA
:1031F400FFF798FE0122079B02FA03F30362AAE792
:10320400022E14BF022103212046059302F07BFC09
:10321400059B032B03D0022E07D1012BE6D12146B7
:103224004046019A02F09EFCE0E7032EDED1022B19
:10323400F4E795FAA5F3B3FA83F304FA03F225EA63
:10324400020503F5A2725AF8222007EB4303404615
:10325400B3F87C10C2F3014202F084FC73E700BFB0
:10326400706C0000BE730000BE73000038B5EFF34D
:103274001185202383F31288BFF36F8F064B9C685C
:1032840002F0C8FE85F31188BFF36F8F2046BDE8B6
:103294003840FEF7DBB800BF840E002038B50A4B77
:1032A40053F82040013053F82050A54200D838BDCF
:1032B400606830B1037EDB0701D402F080FE08347D
:1032C400F3E723689847FAE7806C0000012270B5A1
:1032D4002B4B86B003201A70FFF7E0FFFEF7F2FBDA
:1032E400FEF766FC03F0F5F80420FFF7D7FF254C42
:1032F400254D2646AE4204F130040FD300F0B0FC55
:10330400204CAC4226D300F0BFFCFDF7AFFA1F4AB5
:10331400938923F00103938106B070BD54F80C3CEB
:10332400059354F8103C049354F8143C039354F854
:10333400183C029354F81C3C019354F8203C00932D
:1033440054E90A2354E90C0100F0AAFA54F8303C79
:103354005E65CEE7D4E90A23B3F1FF3F08BFB2F1BB
:10336400FF3F05D052EA0301206803D103F022F89D
:103374003034C6E70649183000F0AAFEF8E700BF6B
:10338400DB0E002078690000686A000070060020E7
:1033940015630000B02370B5144E86B003FB0066BD
:1033A400134B012205930F23CDE903320023CDE90A
:1033B400013314234FF4A0720E4D0F4903FB005543
:1033C400044602FB00110D4B3046009500F068FAEC
:1033D400337C2C7423F004033374094B013403EB62
:1033E400C423EE606B6006B070BD00BFC005002052
:1033F40088730000840E0020E02A0020ED600000A5
:10340400E02200207FB50020FFF748FF294B03F599
:10341400006282F3088883F30A880024E023264D9F
:1034240085F82230EC772C766C76AC7685F82040E3
:103434006B6A43F4E0236B6285F82340FDF7C6FE14
:10344400FDF7EEFF4FF0FF33AB62EB62FEF704FAD9
:10345400FEF79EF8194800F089FAFEF715FB0120E3
:10346400FFF71CFF0220164DFFF718FF00F036FC93
:10347400144B4FF480625D61134B1449059301238F
:103484002846CDE90343CDE90144114B009400F0F3
:1034940007FA06462B7C284623F004032B7402F01B
:1034A40014FF2046FFF776FF31462846084AFDF709
:1034B40095FF00BFE022002000ED00E0200700207F
:1034C40070060020840E00208D730000202C002044
:1034D400D132000038B5074C074DAC4201D300206F
:1034E40038BD204602F099FD08B91C34F5E76FF0A9
:1034F4001500F5E7680100206801002073B50C464B
:10350400EFF31181202585F31288BFF36F8FC5680F
:103514005DB125602B68C36083690133836100203A
:1035240081F31188BFF36F8F11E052EA030603D1D0
:103534006FF00B002560F3E7CDE900230246083065
:1035440000F000FB18B9034B9B685B69236002B071
:1035540070BD00BF840E00202DE9F34104461746D8
:103564001E46EFF31188202383F31288BFF36F8F75
:10357400304BC2689B6872B18068984217D057EA92
:10358400060216D188F31188BFF36F8F6FF00F0016
:1035940002B0BDE8F08193F90E1001322161C4E953
:1035A400023288F31188BFF36F8F0020F0E721699E
:1035B400F3E793F90E1090F90E30994230DA9942FC
:1035C400A8BF194602F09BFD054622464146CDE9B7
:1035D4000076194800F0B6FA0028E6D0EFF3118619
:1035E400202383F31288BFF36F8FA068D0B12368C0
:1035F40021699C420AD04BB193F90E309942A8BF7D
:1036040019466FF07F039942B8BF194602F077FD5F
:1036140040B13146084802F08BFE6FF00A00B7E76C
:103624000025D2E7002DF4D186F31188BFF36F8F04
:10363400F3E700BF840E0020DC0E0020F8B5836899
:103644000546002B40D0234A926893423FD1C36879
:10365400012B03D9013BC3600020F8BDEFF31187B0
:10366400202383F31288BFF36F8F0169806802F00F
:1036740046FD2C68A54207D10023C5E9023387F330
:103684001188BFF36F8FE7E7002CF5D0D4E900323F
:10369400002613605A60237CC4E9006623F0020309
:1036A4002374A66004F1180002F0BBFEAC6094F928
:1036B4000E3020462B61C4F8AC6002F006FE394699
:1036C400054802F035FEC7E76FF01500C5E74FF077
:1036D400FF30C2E7840E0020DC0E002037B511460F
:1036E400EFF31185202282F31288BFF36F8F0468F1
:1036F4009CB12368426823F003039442036008BF2B
:1037040043600121204602F07EFD044685F31188C2
:10371400BFF36F8F204603B030BD51EA0302F5D0EA
:1037240000F10802CDE900131046294600F00AFA18
:103734000028EFD1014B9B685C69EBE7840E002005
:1037440070B5EFF31186202383F31288BFF36F8FD4
:103754000468A0421BD0D4B1D4E900320025136020
:103764005A60237CC4E9005523F002032374A56046
:1037740004F1180002F055FE2046C4F8AC5002F0E3
:10378400A4FD3146BDE87040064802F0D1BDD0E941
:1037940002329A4218BF0133836086F31188BFF363
:1037A4006F8F70BDDC0E002013B5EFF31181202460
:1037B40084F31288BFF36F8F846844B1013C846042
:1037C40081F31188BFF36F8F002002B010BD52EA5D
:1037D400030406D181F31188BFF36F8F6FF00F00DC
:1037E400F3E7CDE900230246014800F0ABF9ECE72A
:1037F400DC0E002038B5EFF31185202383F3128803
:10380400BFF36F8F0468A04213D094B1204602F036
:1038140011FD04F1180002F004FE00232046C4F850
:10382400AC3002F052FD2946044802F081FD00202C
:1038340038BD85F31188BFF36F8FF8E7DC0E0020E5
:103844002DE9F3411C4652EA040307460D46164689
:1038540008D10846FFF7F2FE6FF00A04204602B0D2
:10386400BDE8F081EFF31188202383F31288BFF3BE
:103874006F8F0846FFF7E2FECDE900643A46414601
:10388400064800F05FF904460028E7D14FF0FF3204
:103894004FF0FF332846FFF75FFEDFE7DC0E002022
:1038A4002DE9F04F984685B000F15803C0E916336E
:1038B400129B002583810423D61D26F0070603747A
:1038C400119B01EB060A0F46C0E906555146856077
:1038D4008373C5730446DDF838B0DDF84C90FDF70A
:1038E40073FA109B073020F00700C4E92576C4F86A
:1038F4009C0002930F9BAAEB0006CDE900B332466D
:10390400434639462046FDF74DFD0F9BC4E9188B0D
:10391400A366109B6565E366EFF31183202282F3AF
:103924001288BFF36F8F104F3A6A3C62226783F3A9
:103934001188BFF36F8FB9F1000F11D01F224946D0
:1039440004F1740002F0FFFD84F89350BB680BB1DE
:10395400D3F8A0303046C4F8A03005B0BDE8F08FED
:1039640084F87490F2E700BF840E0020012310B5A0
:103974000374838100230446C0E9253300F0D2FC9C
:10398400014B9C6010BD00BF840E00206FF00A0143
:10399400094A9368C3F8AC100849C3F8A8004B68F7
:1039A40043F080534B60002383F31188BFF36F8F80
:1039B4009368D3F8AC007047840E002000ED00E05B
:1039C40070B590F91020037C002A2FDBD9062DD185
:1039D4001A4C63F07F032246037452F8183FE169DE
:1039E400934207D1C0E900210860E0610FE09942E9
:1039F400F8D01B68002BF5D093F90E6090F90E50A7
:103A0400AE42F4DD5968C0E9003108605860A56928
:103A1400954200D005B9E568A3681A7CD20606D1A0
:103A2400DA897F2A03D9AA690AB9636170BDAB42F6
:103A340002D0284600F0B0FA6561F7E7840E002052
:103A440038B590F910200146002A037C04DA03F00B
:103A54007F03037402F001FC0D4D2A4652F8184FFF
:103A6400AB68944200D004B9EC688B4207D01A7C4E
:103A7400D20604D1DA897F2A01D9A2692AB1A342E4
:103A840002D0204600F088FA23466B6138BD00BF9F
:103A9400840E0020B3F1FF3F08BFB2F1FF3F03D013
:103AA4000249183000F014BB704700BF15630000D2
:103AB400034648B9EFF3058232B9064A5169926860
:103AC400914201D0FFF762BF83F31188BFF36F8F78
:103AD400704700BF840E002038B5184CA168E06917
:103AE4000B68814214BF1A46002249680B60596072
:103AF400A368E1692AB9124AC3E900210B60E361B2
:103B04000AE092F90E5093F90E00854212DD5168D5
:103B1400C3E900210B605360A569094B9D4200D0A5
:103B240005B9E568A3689D4202D0284600F034FA3E
:103B3400656138BD8A42DED01268DBE7840E00205E
:103B44009C0E0020F8B5DDE906670D4B0C4698681D
:103B540011460C4A1060EFF31182202282F312887E
:103B6400BFF36F8F9D68284602F089FB28463246D2
:103B74003B46FFF78FFF2046BDE8F840FFF706BF3E
:103B8400840E0020A80E0020F8B50446EFF3118738
:103B9400202383F31288BFF36F8F037C49B203F0B1
:103BA4001F02002A0CBF0126002635D103F07F0333
:103BB4002A4D037402F051FB2A46037C817363F09F
:103BC4007F03037452F8183FE869934207D1C4E9AC
:103BD40000200460EC610DE09842F8D01B68002BD3
:103BE400F5D093F90EC08C45F6DD5968C4E900316F
:103BF4000C605C60AC69944200D004B9EC68AB68BA
:103C04009C4202D0204600F0C7F96C6187F311880A
:103C1400BFF36F8F3046F8BD9B071CD5856802F053
:103C24001CFB81732B689D4209D16B68C4E9005366
:103C34001C606C60EAE76A689A42F6D01B68002B45
:103C4400F3D093F90E208A42F5DD5A68C4E90032B4
:103C540014605C60DAE78173D8E700BF840E00204B
:103C6400EFF31181202383F31288BFF36F8F054B89
:103C74009A68D37B013BD37381F31188BFF36F8FB1
:103C8400704700BF840E002070B5EFF31186202327
:103C940083F31288BFF36F8F0F4DAB68DA7B013269
:103CA400DA732A4652F8184F944200D004B9EC68EB
:103CB4001A7CD20604D1DA897F2A01D9A2692AB1F1
:103CC4009C4202D0204600F067F923466B613046DF
:103CD400BDE87040FFF7ECBE840E0020024B03F1F8
:103CE4001802C3E906227047840E002070B5EFF372
:103CF4001186202383F31288BFF36F8F1A4CA168B7
:103D0400E0690B68814214BF1A46002249680B60BF
:103D14005960A368E1692AB9144AC3E900210B6018
:103D2400E3610AE092F90E5093F90E00854216DD24
:103D34005168C3E900210B605360A5690B4B9D4298
:103D440000D005B9E568A3689D4202D0284600F07A
:103D540023F965613046BDE87040FFF717BE8A421B
:103D6400DAD01268D7E700BF840E00209C0E002032
:103D7400F8B550EA010306460C4603D1FFF7B6FF37
:103D84000020F8BDEFF31187202383F31288BFF3DB
:103D94006F8F124D124BA8681860FFF751FEA86888
:103DA400234632460F49183000F092F9AA680446B7
:103DB400137C384643F004031374FFF7E7FDAB6844
:103DC400D3E90A23B3F1004F08BF002AD8D102F087
:103DD4005DFB201A20EAE070D3E700BF840E0020C8
:103DE400A80E002015630000014B9868704700BFBF
:103DF400840E00202DE9F84304468789EFF31186E9
:103E0400202383F31288BFF36F8F037C190705D532
:103E140086F31188BFF36F8FBDE8F883D90943F0A7
:103E2400080272D10274A36813B1204602F01DFA8D
:103E340004F1180002F0F5FAA56D04F15808A8453C
:103E440011D04FF0000975B1284602F00EFA05F1C1
:103E5400180002F0E6FA2846C5F8AC90FFF7B0FD6A
:103E6400A56DA845EFD1DFF8C480D8F808309C428E
:103E740053D1EFF30589B9F1000918BF4FF00109D7
:103E8400D8F818502A4A954200D00DB9D8F80C50E9
:103E9400AB4202D0284600F07FF82046C8F8145000
:103EA40001F0FAF9204600F0C7F8B9F1000F02D08A
:103EB4002048FFF75BFDD8F808309C4230D1EFF37F
:103EC40005836BBBA289D20711D586F31188BFF392
:103ED4006F8F83F31188BFF36F8F0423184602DFBB
:103EE400EFF31186202383F31288BFF36F8F3046DC
:103EF400FFF74CFDFB078FD5002383F31188BFF335
:103F04006F8F0423184602DF86E703F07F0343F034
:103F14000803037402F0A1F985E74FF00009AFE745
:103F240086F31188BFF36F8FE4E700BF840E00208F
:103F34009C0E002020070020027C034612F01F0282
:103F440010D10A4988420DD00949086868B1D98955
:103F54007F2909D893F90E20064B1B689A42B8BFF3
:103F6400002070470020704710467047C0050020AD
:103F7400D0000020AC0E00200122044BC01A044BD8
:103F8400C0105843034B1A54704700BFD007002099
:103F9400ABAAAAAADC0E002070B50C4B0C4D1E7CFB
:103FA400FFF7CAFF182303FB06550446284602F010
:103FB40038FA0022074B9A553CB1621E2846BDE8E8
:103FC40070400549D31700F083B870BD840E0020FB
:103FD400D0070020DC0E00207D3F000038B5EFF351
:103FE4001185202383F31288BFF36F8F0F4B104A80
:103FF4009C681068A04206D1FFF7CEFF85F31188B4
:10400400BFF36F8F38BD00211B7C1160094AD35C5C
:10401400002BF3D02046FFF78FFF0028EED0237C3F
:10402400DB0601D1FFF758FD2046E5E7840E0020AA
:10403400A80E0020DC0E0020EFF31181202383F36F
:104044001288BFF36F8F0A4A136A834207D11B6F2A
:10405400136281F31188BFF36F8F70471346002BEF
:10406400F7D01A6F8242F9D1026F1A67F1E700BFE5
:10407400840E0020024B1868984208BF0020704745
:10408400D4000020034B1B680BB9FEF755BC00207D
:10409400704700BFB00E002030B570B10B4B5B68A9
:1040A40098420AD0036843B1D3E90421D0E9044516
:1040B400121941EB0501C3E90421D0E90032136070
:1040C4005A600023C0E9003330BD00BFD400002093
:1040D400B3F1FF3F08BFB2F1FF3F2DE9F84F0446AB
:1040E400994615461F467AD08160EFF31188202344
:1040F40083F31288BFF36F8FB9F1000FDFF8E4A0E8
:1041040020DBFFF7BFFFDAE90027013549F1000999
:104114002D1849EBE07306464FF00109C4E9045336
:10412400AD1843EB0707FFF7A5FF0346DFF8B8E038
:10413400DEF804A0EBB9C4E900EACAF80040CEF8FE
:10414400044028E06FF00103DAE900125B1A4FF033
:10415400FF3161EB02025B1B62EB0902012B72F17E
:104164000001BCBF012300224FF00009C0E9043262
:10417400D9E7D3E9041CD4E904208A4270EB0C0B80
:1041840024DA891A5A686CEB0000C3E90410C4E904
:10419400003214605C60FFF76DFF84420ED1134B54
:1041A4001B685BB9B9F1000F02D1FFF76BFF06463C
:1041B400304602F01FF90021FEF790FB88F31188C6
:1041C400BFF36F8F28463946BDE8F88F521A60EB6B
:1041D4000C005345C4E90420ADD01B68AAE70025B0
:1041E4002F46EFE7E8070020D4000020B00E00209F
:1041F4002DE9F047DFF8A8900246C9F800000D4603
:10420400FFF738FF00260027DFF898804FEAE27EA8
:10421400D8E9001350B1D0E9044CA2427EEB0C0A59
:104224001ADAA41A6CEB0E06C0E9044600245218EC
:1042340043EB0E032046C8E90023C9F8004002F00E
:10424400D9F82146FEF74AFB85F31188BFF36F8F37
:10425400BDE8F047FFF7C2BE611843EBE473C0E961
:104264000467C8E90013FFF717FF01224FF000436A
:10427400C0E9042385F31188BFF36F8F83689847DF
:10428400EFF31185202383F31288BFF36F8FD9F8DE
:104294000020121BC9F80020FFF7ECFEB6E700BFB0
:1042A400B00E0020E807002010B5EFF3118420239E
:1042B40083F31288BFF36F8FFFF7E4FE0346054ACA
:1042C400D2E90001181841EBE37184F31188BFF3BC
:1042D4006F8F10BDE80700202DE9F04105460E461A
:1042E400174601F0B4FF30B9074B9B68D3F8A040E0
:1042F40014B9BDE8F081054C3B46324629462046B8
:10430400BDE8F04102F0C6B8840E00206801002028
:1043140002460021014B024802F0BCB80B500000D9
:1043240068010020014BC0F8A030704768010020EC
:104334000146024A0020FFF7CFBF00BF0B50000028
:1043440038B5064C064DAC4201D3002038BD20469A
:10435400D4E9011202F0BEF81434F4E76801002035
:104364007C01002010B50A4C23681BB10123236093
:10437400002010BD00F0F4F80028F7D00138072819
:1043840003D8044B53F8200010BD034810BD00BFF0
:10439400B40E0020986C0000FE8FFFFFBFF34F8F18
:1043A4000549064BCA6802F4E0621343CB60BFF3CD
:1043B4004F8F00BFFDE700BF00ED00E00400FA05E9
:1043C40030B44FF0FE3200250B4B0C4C0C494968BD
:1043D400C3F80024C3F80424C3F80824C3F80C2445
:1043E400C3F81024C3F81424C3F81824C3F81C24F5
:1043F400C4F8005530BC0847005084500040845035
:10440400DC000020024BD0E90012C3E9001270471F
:10441400DC00002010B5044650B1636813F0685FF7
:1044240005D0064A934202D000236260236010BD87
:10443400034B04485B689847EFE700BF2C5F5CA917
:10444400DC000020B86C0000C8B143680D4A9342F8
:1044540013D013F0685F0ED0012350E8002F1946E3
:1044640040E8001C9CF0000FF7D1012AF5D0BFF3FF
:104474005F8F0020704704487047044870476FF40A
:10448400E04070472C5F5CA9E98FFFFFEA8FFFFFD4
:10449400034680B1426809498A420AD012F0685F33
:1044A40005D0BFF35F8F002210461A60704704489E
:1044B4007047044870476FF4E04070472C5F5CA974
:1044C400E98FFFFFEA8FFFFF10B5044620B10023F8
:1044D400034A2360626010BD0248FFF771FFF6E7EC
:1044E4003A00003AE06C000070B5184CD0F804C0F3
:1044F4000568C4F804C0D0F808C0C068C4F808C08F
:10450400E06025600868124B124A186048685860D9
:1045140088689860C8680969D8601961536813F09D
:10452400685F05D000230C49104651601360A8470A
:104534000A48436813F0685F07D0002206492368DD
:10454400C0E90021BDE87040184770BDF8000020A4
:10455400E4000020180100202C5F5CA91001002059
:1045640008B500F013F830B900F014F828B9064A79
:10457400C2F80C0A08BD032008BD00F009F800F0D9
:1045840043F8042008BD00BF005084500020704749
:104594000020704710B5154800F05EF800B110BD5A
:1045A400134800F059F80028F9D1124C204600F0C5
:1045B40053F80028F3D1104B10481C6000F04CF85D
:1045C4000028ECD10E4800F047F80028E7D10D4848
:1045D40000F042F801460028E1D100F039F8044621
:1045E40008B900F04DF8204610BD00BF5801002066
:1045F4005401002050010020480100204C010020FB
:10460400440100204001002008B50B4800F02EF8BA
:104614000A4800F02BF80A4800F028F8094800F08E
:1046240025F8094800F022F8084800F01FF8BDE812
:10463400084000F00FB800BF5801002054010020CA
:10464400500100204C0100204401002040010020C2
:1046540000207047704700BF08B5034B02681B6811
:1046640010689847002008BDF800002008B5034BE7
:1046740002685B6810689847002008BDF8000020B5
:1046840070B5094C094D2069AB68984718B1084BBF
:1046940008485B6898470021074AEB681160206965
:1046A400BDE87040184700BFE4000020F800002077
:1046B400DC000020046D0000D00E00200CB430B5E6
:1046C4008BB004460D462022002102A801F033FFDE
:1046D4000223002D06948DF80A300C4B039312DB51
:1046E40001D06B1E1C440FAA0E9902A807940192D4
:1046F40000F00EF815B1069B00221A700BB0BDE84D
:10470400304002B070470024EDE700BF356600007A
:104714002DE9F04F43688BB080469246009383782E
:104724009C0740F1F98000250878002800F0F68005
:1047340025280AD04B1C019301354146009B98471C
:104744000028C0F2E3800199EEE74E788B1C252EF9
:104754000193F1D000270A22B9463C461F2C22D8E7
:10476400A6F12003102B20D8DFE803F0141F1F1A32
:104774001F1F1F0B1F1F1F121F171F1F090044F0AD
:104784000104019B13F8016B0193002EE6D13AE07A
:1047940044F0020444F00404F3E744F00804F0E7AE
:1047A40044F01004EDE77F2C24D8A6F13003092B44
:1047B40008D860064EBF02FB073744F0200402FB12
:1047C4000939DEE72A2E0DD161065AF8043B53D489
:1047D400002BA7BF44F020049946C3F1000944F01C
:1047E4002804CEE72E2E05D1630600F1978044F00D
:1047F4004004C6E76C2E2ED028D8682E32D06A2EFC
:1048040037D04C2E35D0002F46F02003B8BF24F00B
:104814004004A3F16502BCBF0027A4B2022A01D957
:10482400612B2BD10AF1070A07279D4E2AF0070AAC
:104834000AF1080A210760D506EB070B34465C45EC
:104844005DD1AE1BA9EB0709A21959E1742E98D0CA
:104854007A2E96D0D7E7260648BF44F4007444F075
:1048640080048EE7E00548BF44F4007444F4807487
:1048740087E744F4207484E71F4682E7A6F16302C5
:10488400122A00F2D880DFE812F013004D00D6009F
:10489400D600D600D6004D00D600D600D600D600ED
:1048A400D600E800D100D600D6001A00D600A00039
:1048B4005AF8043B012704AE8DF81030BAE75AF8D1
:1048C400046B784B002E08BF1E4614F0400F304690
:1048D40014BF39464FF0FF3101F048FE0746A9E7FF
:1048E40041462020009B984700280FDB013CA7424B
:1048F400F6D34D44A1462D1B9EE74C46F7E74146AF
:1049040014F8010B009B9847002898DA98F80230B5
:1049140043F0040388F802304FF0FF3528460BB00B
:10492400BDE8F08F220630D5A3052AD50AF1070A7F
:104934002AF007039A4659685AF8080B24F0100B1A
:1049440000291FFA8BFB2FDA40424BF4806B61EB9A
:10495400410104AC0A23224601F014FE1BF0400F6F
:10496400A0EB040200F08E802BF001049742A4B265
:1049740040F38F80002E40F08E802BF01104A4B2FF
:104984001DE05AF8040BC117D8E7E0055AF8041BD8
:1049940001D40846F7E7A20547BF48B241F3C01166
:1049A40008B241F3C031C9E750EA0103D1D163062B
:1049B400CFD5002FCDD124F011043A46A4B23B4602
:1049C40040F206410C4262D124E024F010040A2390
:1049D400A4B214F0800243D014F4007117BF0AF19A
:1049E400070A5AF8040B2AF0070292461CBF5168C2
:1049F4005AF8080B50EA01023ED124F0160B620665
:104A04001FFA8BFB3CD5002F3AD124F017043A4609
:104A14003B46A4B221075AD4E10705D5994572DD76
:104A2400A9EB03039F184B469B464AE044F010044D
:104A340010237826CDE7782B04D1C6F1780343F010
:104A44001003C6E741462520009B98470028FFF63F
:104A54005DAF02354146304670E608230026B8E7CC
:104A640014F480715AF8040BC4D014F400711ABF02
:104A7400C0B2114680B2BDE724F006041FFA84FBDD
:104A840004AC68E713465C46E10699D52EB90133B8
:104A9400C0E71346F8E73B46F6E70233BAE700BF40
:104AA4009973000092730000CDE902324146202040
:104AB400009B98470028FFF629AF0BF1010BDDE9B5
:104AC4000232D945F0DCEB1A03EB0B055B46E10639
:104AD40027D541463020CDE90232009B9847002873
:104AE400FFF614AFDDE902327EB901352F44791B9C
:104AF4008A4229DB144604AE94BB2A44A9EB030979
:104B04001546914440E017468EE70235414630464B
:104B1400CDE90232009B98470028DDE90232E5DA4C
:104B2400F4E640F206410C42E0D014F0020F05F125
:104B34000105414614BF2B20202014F4806FCDE9D9
:104B4400023218BF2D20E5E7CDE902324146009B31
:104B54003020013598470028DDE90232C7DAD5E66E
:104B6400013C4146CDE90232305D009B9847002864
:104B7400DDE90232C0DAC9E641462020009B013556
:104B840098470028FFF6C2AEA9EB0503002BF3DC1F
:104B9400D9E500BF704703460A4619790123006826
:104BA40003FA01F103691B68194218BF82F001027C
:104BB40012B18368DB68184783681B69FBE7034607
:104BC400F0B419790068DB8801250669DA073468CE
:104BD40054BF43F4B01383F4D0138D4023F48012F4
:104BE400DB0787684CBF2C43AC4334603B68F0BCA4
:104BF4001847014640F2E73008B54FF47A720023B3
:104C040000EBC130490CFBF7A3FABDE8084001F002
:104C1400B8BB836800EBC101B3F5004F2CBF51F85A
:104C2400220031F81200704700EBC1018068B0F532
:104C3400004F2CBF41F8223021F812307047012276
:104C440008B5FFF7E6FFD04008BD836800EBC1015B
:104C5400B3F5004F08D34B681AB143F001034B601E
:104C6400704723F00103FAE74B881AB143F00103BC
:104C74004B80704723F00103FAE753000122FFF74A
:104C8400D3BF08B58368B3F5004F06D3FFF7D7FF4A
:104C940001288CBF0020012008BD0020FCE78368A8
:104CA400B3F5004F34BF04230823C91A081AC008F7
:104CB40070478368B3F5004F28BF0139B1FA81F01A
:104CC400C0F11F0070472DE9F041174603220E463C
:104CD4000446FFF79EFF8642054607F104080AD101
:104CE4000122E368BA4023EA0203E360002344F8A4
:104CF4002830BDE8F081314602222046FFF789FFC3
:104D040006462B4601460322204644F82850FFF766
:104D14008BFF334629462046BDE8F0410222FFF7C7
:104D240083BF38B504460D46FFF7ABFF70B929467B
:104D34002046FFF784FF01462046FFF7BAFF2946C5
:104D440002462046BDE83840FFF7BDBF38BD2DE917
:104D5400F04705468946FFF7ACFF05EB800ADAF811
:104D64001070064677B94FF0FF34EB680136B44053
:104D74001C4015D094FAA4F2B2FA82F2131D55F82D
:104D8400234009E03C464FF0030821462846FFF73C
:104D940056FF484507D3324621462846FFF793FF7E
:104DA4002046BDE8F087214603222846FFF731FF5D
:104DB400B8F101080446CAF81000D4D08742E4D1FF
:104DC400D1E72DE9F04114460E460546FFF737FFBB
:104DD400A4EB0608371B0744424631462846FFF732
:104DE4004CFF3A4621462846FFF747FF4346002238
:104DF40021462846FFF718FF21462846FFF71FFFE4
:104E04003B46211800222846BDE8F041FFF70CBFBD
:104E14002DE9F041164604460F46FFF710FF3146D0
:104E240005462046FFF70BFF05442A46394620462F
:104E3400FFF723FF31462046FFF701FF2B463118C9
:104E440000222046BDE8F041FFF7EEBE2DE9F04117
:104E540004460D46FFF715FFB8BB29462046FFF769
:104E6400EEFE01462046FFF724FF04EB80010E69A5
:104E740096B90122E36882401343E36002220D6184
:104E84002B4629462046FFF7CFFE0322294620461B
:104E9400BDE8F041FFF7C8BE022231462046FFF7C5
:104EA400B8FE0746034629462046FFF7BDFE032207
:104EB400334629462046FFF7B7FE39462B4620469F
:104EC400FFF7B2FE02223146E1E7BDE8F08170B59A
:104ED40000295CD0056801222846FFF7E0FE014660
:104EE40004462846FFF795FE104006D180F311884A
:104EF400BFF36F8F0423184602DF21462846FFF7CD
:104F04009EFE2618314600222846FFF782FE361AF6
:104F1400B44206D082F31188BFF36F8F042318467E
:104F240002DF002221462846FFF78FFE2146FFF7C5
:104F340086FE2618012231462846FFF76AFEC2077C
:104F440008D431462846FFF7ECFE3246214628466F
:104F5400FFF75EFF002221462846FFF75AFE261A75
:104F6400012231462846FFF754FEC30709D43146CF
:104F74002846FFF7D6FE224631462846FFF748FF6B
:104F8400344621462846BDE87040FFF75FBF70BD38
:104F940070B5056809B9002070BDAB6801F007045D
:104FA400B3F5004F34BF0422082207341444E40844
:104FB40004EBD1049C4228BF1C4628462146FFF737
:104FC400C6FE06460028E6D001462846FFF737FE0F
:104FD400A04209D93444314628462246FFF7F1FE5F
:104FE40021462846FFF732FF284601223146FFF7C3
:104FF4002CFEAB68B3F5004F34BF0423082303EB46
:10500400C6031844C8E71146FFF7C2BFB2F5802FA4
:1050140034BF042308232DE9F0410026D21A8C184A
:10502400CD1D25F0070524F00704641BE408056082
:1050340021462846AC60EE60FFF73BFE820002F199
:105044001B07FF083146043205F1100001F073FA22
:105054003A4631462846FFF710FE3346324631467B
:105064002846FFF7E1FDA4EB070828463146012254
:10507400FFF7EBFD42463946FFF7FFFD3B4632465C
:1050840039462846FFF7D0FD21462846FFF7F5FDAF
:105094004346324621462846FFF7C6FD21462846A8
:1050A4000122FFF7D2FD3946BDE8F041FFF7CEBE3D
:1050B400002070470FB407B504A951F8040B0191FF
:1050C400FBF7EEFB03B05DF804EB04B07047038B11
:1050D40013F0070306D10368002B18BF032008BF91
:1050E40000207047022B05D1408BB0FA80F04009B4
:1050F40080007047012B04D10368002B18BF0520E2
:10510400EDE70020704710B50C4600B111B96FF0FF
:10511400150010BD081D00F087F80028F9D1A36818
:10512400032BF6D9F3E72DE9F0410D46074619465E
:10513400281D90461E4600F088F8044638B13346D0
:10514400424629463846A446BDE8F0416047BDE8DA
:10515400F08110B4EFF31182202484F31288BFF39A
:105164006F8F416110BC0121FBF7CCBB38B50C46F5
:10517400054658B151B10B6843B14B6833B11C2299
:10518400002101F0D8F900202C6138BD6FF0150022
:10519400FBE7F8B504460E46FFF7B5FF051E3BDBFB
:1051A400EFF31182202383F31288BFF36F8F4FF63E
:1051B400FF71638B278B8B4207F007072ED0062FD6
:1051C4002FD8DFE807F0182E082E180418006FF007
:1051D4008505002303E0013363830225012382F361
:1051E4001188BFF36F8FBBB100233A463146204686
:1051F400FFF799FF10E000233360636823B9C4E923
:10520400006627B13D46E4E71E606660F9E70221C7
:105214002046FBF777FB3D462846F8BD6FF00A05AC
:10522400D7E76FF00405D4E7034658B1426802F0AB
:105234000302012A03D0032A04D1026812B1002018
:10524400986070476FF0150070474268034602F09B
:105254000302032A4FF00002816014BF1046006865
:105264005A6070477047FEE701F065B901F056B91E
:1052740001460068FBF774BD08B5FBF7A1FDBDE866
:105284000840FCF7D3B800210120FBF769BDD0F832
:10529400943083F30B8870476FF08500704761B6D4
:1052A40062B680F31188BFF36F8F704708B572B68A
:1052B400002383F31188BFF36F8F00F06BF850B1B4
:1052C400BFF34F8F30BF00BF00BF00BF00BF00BFA0
:1052D40000BF00BF00BF62B6BFF36F8F08BD10B53B
:1052E400044672B6002383F31188BFF36F8F00F076
:1052F40051F850B1BFF34F8F20BF00BF00BF00BFB4
:1053040000BF00BF00BF00BF00BF84F31188BFF31C
:105314006F8F62B610BD30B5D1E90045D0E9000108
:105324000021201A30BD68B50D460646FCF720F969
:105334004FF47A710246A6FB0106002301FB0561C6
:10534400FAF706FF68BD40E800F313F4803FD8B2D3
:1053540008BF6FF01500704730B50C684B6885B016
:105364000A894D890094013B24F01F04234402F070
:105374001F0242EA451223F01F0369468DF80820F4
:105384000393FCF73BF905B030BD08B5FCF716FBF9
:10539400002008BDFCF738BB4FF05023012270B544
:1053A4000C460546C3F814260020FCF7C1FB28462A
:1053B4002346BDE87040002118472DE9F041064618
:1053C40001200D46FCF7B4FB4FF47F03D3F83021E2
:1053D4004FF05024072AD3F834311BD1023B022B5F
:1053E40018D94FF0010800270520C4F81886C4F81E
:1053F400147600F051FA4046C4F8148600F04CFAD2
:10540400C4F81476C4F8187630462B46BDE8F0414B
:10541400002118470023C4F81436F5E70C22036969
:10542400C9B202FB0133986F00F00700704770B5F2
:105434000346C9B20069EFF31186202484F312886D
:10544400BFF36F8F0C2505FB0104A46F14F0C00497
:1054540001D0A24210D1012205FB01008267002085
:1054640086F31188BFF36F8F28B95B6803EBC10320
:105474005B689847002070BD4FF0FF30F0E7802252
:10548400FFF7D5BFF8B5069F05460469C9B2EFF327
:10549400118C202080F31288BFF36F8F0C2606FB3B
:1054A4000146B06F00F0070EBEF1010F11D1B767CE
:1054B40000268CF31188BFF36F8F46B90C2000FBD4
:1054C4000144C4E91C236B6853F8313098473046D3
:1054D400F8BD00F0C00087420CBF6FF077064FF0B4
:1054E400FF36E6E713B580240094FFF7CBFF02B044
:1054F40010BD10B41C240069CBB204FB03000021CE
:1055040010BC1047032000F01BBA022000F018BAA8
:10551400032000F024BA022000F021BA1046FEF75E
:105524000FB900F0A5BAFDF77FBC436800205B68A3
:105534001B690B607047436802EA01005B6821EA5B
:10554400020198600020D9607047436800205B68BE
:1055540099607047436800205B68D960704743686E
:105564005B685A6821EA0200114098600020D96003
:10557400704730B50369586800B30024884219D1D4
:1055840008688CB99C685860A14200D198600020DA
:1055940008602AB15A680A609A68596002B9996029
:1055A40000200FE02846E9E720609868814208BFA0
:1055B4009C60ECE705680446002DF3D1002AE9D18C
:1055C4006FF0150030BDFDF76DBD30B54368136055
:1055D400057A446804EBC504A34202D36FF00100CA
:1055E40030BD5C7908338C42F1D10020F8E7426881
:1055F4000B46906A90B1012910D8012192F82C2011
:10560400914002691268114218BF83F0010313B17B
:105614008368DB68184783681B69FBE76FF08500C4
:10562400704773B543680C46986AD0B193F82C5010
:105634000669836801A95B689847002807D004DBE2
:10564400003818BF01202070002002B070BD3368FC
:10565400019858400123AB401840003818BF01207E
:10566400EEE76FF08500F0E7F8B544682068D8B13C
:1056740000F0BDFCC8B120682179E38801250669E2
:10568400DA07346854BF43F4B01383F4D01323F41B
:1056940080128D40DB0787684CBF2C43AC433460D9
:1056A4003B68984700EAE070F8BD6FF01200FBE732
:1056B40043681B68D3F88004C3F8800470474268C9
:1056C4001368D3F8100150B10020126A12780A70DE
:1056D400C3F81001D3F8102101221A6070474FF06B
:1056E400FF30704702680346D2F8580140B95B683E
:1056F400DB0706D4D2F82001003818BF0120704718
:105704000120704743681B68D3F80423D20517D5DA
:10571400D3F82021A2B1EFF31182202181F3128862
:10572400BFF36F8FD3F8201131B10021C3F82011DA
:10573400D3F820110121D96082F31188BFF36F8F50
:10574400D3F85831704713B501AA0446FFF73DFF5B
:10575400002805DB019B226819791868FCF7C0FD55
:1057640002B010BDF8B50546002201210820FBF760
:10577400E1FD0820FBF7C2FD6C680121E068FFF73A
:10578400E2FF6B6819682369C1F82435A27D637D43
:10579400207D1343228B02431343C1F86C356E689A
:1057A4000022D6E9004313F0010312D02F6904F15B
:1057B4000C01C4F8A02104F59070C4F88C2007F102
:1057C400080200F09EF800283ADB387AFDF7E4F985
:1057D40001230822C4F80025F2690121C4F84425F4
:1057E4000022C4F84825A1606BB9D4F82031002BFD
:1057F400FBD0C4F82021D4F820310123E3604FF416
:105804008073C4F80433D4F85831002BFBD0002142
:10581400C4F800156D68E8682C68FFF794FF082346
:10582400C4F800352A7A52B92B6AC4F834350123F6
:10583400C4F83835C4F81021D4F8102123600020AE
:10584400F8BD002200F150039B009BB203F15023EA
:1058540003F580331A601B68704708B5FCF7DCFE5B
:1058640008BDFEF77FBD08B5FBF754F9FBF73AFA1C
:10587400BDE80840FEF776BD4FF47F03D3F830212E
:10588400D3F83401022808BF072A0CBF01200020E6
:10589400704703460020184700F08DBB024610B540
:1058A400116891B1B1FA81F3C3F11F000123834060
:1058B40021EA0303D2E8EF4F8C4204D1C2E8EC3F63
:1058C400BCF1000FF6D1EBD110BD6FF00B00FBE77C
:1058D40010B50368CB40DB0710D401238B4002686A
:1058E40043EA0201D0E8EF4F944204D1C0E8EC1F30
:1058F400BCF1000FF6D1F2D1002010BD6FF01500FD
:10590400FBE770B5D0F880300646002B0C461546F0
:1059140013DBD1F88030002B0FDB00210846FDF7A4
:105924002DF948B92B7843F00043C6F880302B7822
:1059340043F00043C4F8803070BD6FF01500FBE7FE
:1059440003280BD8DFE800F002040608FDF76CBA60
:10595400FDF798B9FDF720BAFDF7D6B970470328CB
:105964000BD8DFE800F00402060800F02EB800F0BF
:105974007FB800F062B800F044B8704708B5FDF78E
:105984009DF9FDF795FAFDF725FABDE80840FDF706
:10599400D9B938B54FF050240123C4F808336360F3
:1059A400002342F21075C4F80031D4F80031D4F861
:1059B4000C24D4F80C34D20306D5DB0704D501201B
:1059C400FFF76AFF013DF2D138BDFFF7E2BF38B5FA
:1059D4004FF050244FF48073C4F808330123E3617B
:1059E400002342F21075C4F82031D4F82031D4F8E1
:1059F4005434DB0304D50120FFF74EFF013DF6D1FB
:105A040038BDFFF7E4BF38B54FF050244FF40073AE
:105A1400C4F8083301236362002342F21075C4F80A
:105A24002431D4F82431D4F85C34DB0304D50120C8
:105A3400FFF732FF013DF6D138BDFFF7E4BF38B5BB
:105A44004FF050240223C4F808330123E3600023F9
:105A540042F21075C4F80431D4F80431D4F818347F
:105A6400DB0304D50120FFF717FF013DF6D138BD54
:105A7400FFF7E5BFF7B51646DDE90847019001A831
:105A84001D46FDF74FFA019BB6F1000C18BF4FF00D
:105A9400010C00EB83000B1E18BF0123002D43EA09
:105AA4004C030CBF4FF0000C4FF00C0C002C43EADD
:105AB4000C030CBF4FF0000C4FF4706C002F43EA42
:105AC4000C030CBF4FF0000C4FF4403CD0F8002204
:105AD40043EA0C0322EA030301B109780EB13678D4
